:020000040800F2
:10000000A0B60020C92D0008CD090008CF090008BE
:10001000D3090008D7090008DB0900080000000028
:10002000000000000000000000000000DF090008E0
:10003000E109000800000000E3090008E5090008E4
:10004000E32D0008E32D0008E32D0008E32D000850
:10005000E32D0008E32D0008E32D0008E32D000840
:10006000E32D0008E32D0008E32D0008E32D000830
:10007000E32D0008E32D0008E32D0008E32D000820
:10008000E32D0008E32D0008E32D0008E32D000810
:10009000E32D0008E32D0008E32D0008E32D000800
:1000A000E32D0008E32D0008E32D0008E32D0008F0
:1000B000E32D0008DD290008051C0008E32D0008D9
:1000C000E32D0008E32D0008E32D0008E32D0008D0
:1000D000E32D00083D2D000845160008E32D00081B
:1000E000E32D0008E32D0008E32D0008E32D0008B0
:1000F000E32D0008E32D0008E32D0008E32D0008A0
:10010000E32D0008E32D0008E32D0008E32D00088F
:10011000E32D0008E32D0008E32D0008E32D00087F
:10012000E32D0008E32D0008E32D0008E32D00086F
:10013000E32D0008E32D0008E32D0008E32D00085F
:10014000E32D0008E32D0008E32D0008E32D00084F
:10015000E32D0008E32D0008E32D0008E32D00083F
:10016000E32D0008E32D0008E32D0008E32D00082F
:10017000E32D0008E32D000851140008E32D0008CA
:10018000E32D0008E32D000800F002F800F064F809
:100190000AA090E8000C82448344AAF10107DA45E2
:1001A00001D100F059F8AFF2090EBAE80F0013F0D0
:1001B000010F18BFFB1A43F0010318474C740000ED
:1001C0006C7400000A444FF0000C10F8013B13F06F
:1001D000070408BF10F8014B1D1108BF10F8015BA0
:1001E000641E05D010F8016B641E01F8016BF9D193
:1001F00013F0080F1EBF10F8014BAD1C0C1B09D1EA
:100200006D1E58BF01F801CBFAD505E014F8016B5B
:1002100001F8016B6D1EF9D59142D6D370470000ED
:100220000023002400250026103A28BF78C1FBD8FF
:10023000520728BF30C148BF0B607047642904F0E3
:100240003387732905F03580002070471FB505F00E
:10025000C7F81FBD10B510BD05F08FF81146FFF7A8
:10026000F5FF00F05AFB05F0ADF803B4FFF7F2FF1D
:1002700003BC02F0FDFC000010B500F031FD01F000
:100280002BF94FF48063DA004FF42051FE4801F05F
:10029000F0F8FE4AFE4B1B7802EB83025188FB4AC2
:1002A000FB4B1B7832F8230000F0CEFE01F0A0F9E2
:1002B000F849F94801F02DFB10BD10B5F74800785A
:1002C00060B3F748007898B90021F64803F09AFE29
:1002D00000BFF44803F0E3FE0028FAD1F14803F030
:1002E000B4FEC0F52050F04908600120EC490870C8
:1002F000EB480078022811D14FF42050E949091D3C
:1003000008600146E74803F09EFE0121E54803F03E
:1003100079FE0020E2490870E349086010BD10B57D
:1003200000BFDF4800780028FBD0DD4800780128B6
:1003300043D1D548DD4908600020DD49086031E03F
:1003400000BF4021DB4803F011FC0028F9D0D7485A
:100350000068D7490968405CD6498880D34800685E
:10036000D3490968405CFF2817D1D0480168D048BC
:100370000068401C085CD9280FD100BF4021CD483F
:1003800003F0F4FB0028F9D0C8480168C8480068A9
:10039000401C085CC74988800BE0C5480068401CC9
:1003A000C3490860C0480068C1490968B1EB800FC3
:1003B000C6D300BF0220BA49087010BD08B5BE48B8
:1003C0000078302806D0312828D032284AD0332867
:1003D00023D16BE0B948007831280FD1B8480078B4
:1003E00038B101201023B7A200210090084601F087
:1003F0008BFFB8A1BD4802F040FA0EE0B04800788B
:1004000038B101201023BAA200210090084601F063
:100410007BFFBBA1B54802F030FA6BE0A74800783B
:1004200031280FD1BB48007838B101201023BAA27F
:1004300019460090002001F067FFBBA1AB4802F015
:100440001CFA0EE0B348007838B101201023BCA29A
:1004500019460090002001F057FFBDA1A34802F00B
:100460000CFA47E09548007831280FD1BD48007854
:1004700038B101201023BCA220210090002001F0FF
:1004800043FFBDA1994802F0F8F90EE0B5480078A5
:1004900038B101201023BEA220210090002001F0DD
:1004A00033FFBFA1914802F0E8F923E083480078C8
:1004B00031280FD1BF48007838B101201023BEA2E7
:1004C00030210090002001F01FFFBFA1874802F0FB
:1004D000D4F90EE0B748007838B101201023BFA24C
:1004E00030210090002001F00FFFB7A17F4802F0FB
:1004F000C4F900BF00BF08BD08B5BC480068A0B97A
:10050000BB48007888B901201023BAA200210090CE
:10051000084601F0F9FEBBA1BBA001F0B7F901202C
:10052000B3490870002066490870B0480068012887
:1005300014D16348007888B9012010236CA20021EF
:100540000090084601F0E0FEB0A1AFA001F09EF9D6
:100550000020A7490870012059490870A348001DD0
:100560000068A0B9AA48007888B901201023A9A280
:1005700019460090002001F0C7FEAAA1A2A001F038
:1005800085F90120A2490870002062490870974847
:10059000001D0068012814D15E48007888B9012048
:1005A000102367A219460090002001F0ADFE9EA125
:1005B00095A001F06BF9002095490870012055497C
:1005C00008708A4808300068A0B99848007888B94F
:1005D0000120102396A220210090002001F094FE1B
:1005E00097A189A001F052F90120904908700020DC
:1005F0005C4908707D4808300068012814D15948CA
:10060000007888B90120102361A2202100900020E9
:1006100001F07AFE8BA17CA001F038F9002083491B
:10062000087001204F49087070480C300068A0B96C
:100630008548007888B90120102384A230210090D9
:10064000002001F061FE85A16FA001F01FF90120DB
:100650007D49087000205749087064480C300068D4
:1006600001280FD15348007860B9012010235BA204
:1006700030210090002001F047FE79A162A001F036
:1006800005F9EFE0F4E00000C0010020EA530008A3
:10069000080000204D00002046000020000000203F
:1006A00014000020286402401000002004000020F4
:1006B0000C000020001001408C0100208D01002062
:1006C0001600002063617249443A3120626F6F6BFB
:1006D000696E67006361723020626F6F6B696E676D
:1006E000207375636365737300000000E6A8002043
:1006F00063617249443A312066726565696E6700CC
:10070000636172302063616E63656C20737563632F
:10071000657373001800002063617249443A322007
:10072000626F6F6B696E67006361723120626F6F19
:100730006B696E67207375636365737300000000F7
:1007400063617249443A322066726565696E67007A
:10075000636172312063616E63656C2073756363DE
:10076000657373001A00002063617249443A3320B4
:10077000626F6F6B696E67006361723220626F6FC8
:100780006B696E67207375636365737300000000A7
:1007900063617249443A332066726565696E670029
:1007A000636172322063616E63656C20737563638D
:1007B000657373001C00002063617249443A342061
:1007C000626F6F6B696E6700636172332063616E85
:1007D00063656C207375636365737300636172494D
:1007E000443A342066726565696E67003082404223
:1007F0001500002063617249443A312072756E6EB3
:10080000696E6700305F310063617200305F3000F5
:100810001700002063617249443A322072756E6E8F
:10082000696E6700315F3100315F300019000020D0
:1008300063617249443A332072756E6E696E670067
:10084000325F3100325F30001B000020636172496B
:10085000443A342072756E6E696E6700335F310002
:10086000335F300000205149087001205049087062
:1008700008BD5048006878B14E48001D006858B166
:100880004C480830006838B14A480C30006818B14C
:1008900001204949087002E000204749087070476C
:1008A00010B501F0CCF9454880ED000AFFF7E1FFF3
:1008B000424890ED000AF1EE040AB4EEE00AF1EECF
:1008C00010FA17D23C480078A0B13D48006888B9BA
:1008D00001203B490860B921800703F026FFFFF79C
:1008E0001EFD0021374803F07BFD0121354803F050
:1008F000B7FD11E0314890ED000AF2EE0E0AB4EEB9
:10090000E00AF1EE10FA07D22B48007820B9AF21A7
:100910004FF0804003F009FF10BD4FF4A06002F0DB
:1009200073FAA82002F022F94FF4E13002F0AEF998
:100930004FF4E13000F0DEFE4FF4165001F0E2FF1C
:1009400042F2CF0142F20F7002F06EF802F0F4F8BA
:1009500001F0ECF801F0E4F901F0BEFE03230B22F4
:100960002821202001F0C0FD01201749086000BFA8
:1009700000F042F90028FBD14FF47A7002F058F9E8
:10098000FFF77AFC09E001F0F9FAFFF789FFFFF7BA
:10099000B3FD4FF4FA7002F04BF9F4E710B5AF2154
:1009A0004FF0804003F0C1FE10BD00001B0000208E
:1009B0001C0000203082404228000020200000203F
:1009C00024000020000400402C000020704700BFDD
:1009D000FEE700BFFEE700BFFEE700BFFEE770478F
:1009E00070477047704700000CB5002001900090E0
:1009F0007648006840F480307449086000BF73484E
:100A0000006800F4003000900198401C01900098AC
:100A100018B90198B0F5A04FF1D16C48006800F406
:100A2000003010B10120009001E0002000900098FB
:100A3000012846D165484030006840F08050634945
:100A4000403108606248006840F4404060490860F6
:100A50005E48083000685D49083108600846006853
:100A600040F4004008600846006840F4A050086068
:100A70005848091F0860081F006840F08070091F6F
:100A8000086000BF5148006800F000700028F9D0ED
:100A900040F20570504908604C480830006820F06A
:100AA00003004A49083108600846006840F0020027
:100AB000086000BF45480830006800F00C000828B6
:100AC000F8D10CBD10B54548006840F470004349AA
:100AD00008603E48006840F001003C490860002082
:100AE0003A4908310860394800683D4908403749AB
:100AF00008603C48091D0860081F006820F4802039
:100B0000091F0860002031490C310860FFF76CFFB5
:100B10004FF0006031498039086010BD70B5002089
:100B20000022022300240221284D08352D6805F0FB
:100B30000C0020B1042806D0082834D107E02A4D43
:100B40002A4E356033E02A4D284E35602FE01F4D88
:100B50002D1D2D68C5F380541C4D2D1D2D6805F0ED
:100B60003F0154B1224DB5FBF1F5184E361D3668E4
:100B7000C6F3881605FB06F209E01B4DB5FBF1F53F
:100B8000124E361D3668C6F3881605FB06F20F4D69
:100B90002D1D2D68C5F301456D1C6B00B2FBF3F5EF
:100BA000124E356003E0104D104E356000BF00BF9F
:100BB000064D08352D68C5F303150E4E705D0B4DBF
:100BC0002D68C540094E356070BD000000380240F8
:100BD0000070004008544007003C024088ED00E0EF
:100BE000FFFFF6FE103000240024F4006C0100200A
:100BF00000127A00700100207CB500250121402000
:100C000002F096FC4FF40240009001208DF80400A1
:100C100000208DF8060002208DF8050001208DF8D7
:100C200007006946FA4802F0E5F90020F949086032
:100C30000A2001F0FDFF0020F749C1F8BC020A209C
:100C400001F0F6FF0120F3491831086000F0C6FA00
:100C50000121FF2000F0B0FB8021122000F0ACFB4E
:100C6000322001F0E5FF1C2000F0C5FB04464FF6E2
:100C7000FF7000EA04241D2000F0BDFB044347F68A
:100C8000A270844205D02146E4A004F08FF901202F
:100C90007CBD0A2000F0AFFB04464FF6FF7000EA6F
:100CA00004240B2000F0A7FB044342F2426084427C
:100CB00005D02146DCA004F079F90220E8E7002500
:100CC0000AE0DC4A02EB45025178DA4A12F81500D4
:100CD00000F072FB681C85B2B22DF2D30020D7E77A
:100CE00010B5002400BF0AE0D34A02EB4402517859
:100CF000D14A12F8140000F05FFB601C84B2082C8B
:100D0000F2D300240AE0CD4A02EB44025178CB4AE8
:100D100012F8140000F050FB601C84B2072CF2D3D0
:100D200010BD10B5002400BF0AE0C54A02EB440222
:100D30005178C34A12F8140000F03EFB601C84B2E4
:100D40000E2CF2D310BD70B50546BE4800EBC506AB
:100D5000002409E0012202EB4402B15C16F8140001
:100D600000F02AFB601CC4B2042CF3DB70BD2DE93B
:100D7000F04104465E254126542734B1022C0ED0A2
:100D8000032C10D0042C16D111E00021FF2000F01C
:100D900013FB1021C72000F00FFBBDE8F081652593
:100DA00041264F2707E052254126662703E04225CA
:100DB0003F26712700BF00BF0021FF2000F0FCFA92
:100DC0004021C72000F0F8FA2946CC2000F0F4FAC0
:100DD0003146CD2000F0F0FA3946CE2000F0ECFA92
:100DE00000BFDAE770B50446A01C082141EA0010F4
:100DF000C5B20021FF2000F0DFFA00217C2000F0C6
:100E0000DBFA02217D2000F0D7FA03217C2000F0DC
:100E1000D3FA29467D2000F0CFFA29467D2000F044
:100E2000CBFA70BD10B504460021FF2000F0C4FAD3
:100E300000217C2000F0C0FA04217D2000F0BCFAE3
:100E400009217C2000F0B8FA2007010E7D2000F077
:100E5000B3FA00217D2000F0AFFA10BD70B5044652
:100E60002025202634B1012C07D0032C08D0042CD7
:100E70000CD108E01825342608E01C252A2605E0B8
:100E80002425162602E028250C2600BF00BF0021DD
:100E9000FF2000F091FA00217C2000F08DFA04215F
:100EA0007D2000F089FA07217C2000F085FA2021BE
:100EB0007D2000F081FA29467D2000F07DFA314640
:100EC0007D2000F079FA06217D2000F075FA70BDD2
:100ED0002DE9F0410446002580268027072C19D2F1
:100EE000DFE804F0180406080C101400402511E097
:100EF00018250FE018254026C0270BE018254026AE
:100F0000402707E01825A026402703E018254026A3
:100F1000A62700BF00BF0021FF2000F04DFA0021EE
:100F20007C2000F049FA29467D2000F045FA052191
:100F30007C2000F041FA31467D2000F03DFA394630
:100F40007D2000F039FABDE8F08170B50546012139
:100F5000FF2000F031FA122000F04DFA044624F090
:100F600002040DB144F002042146122000F024FADC
:100F700070BD2DE9F04705460E461746984638469F
:100F800007EBD07105EB61011FFA81F9404608EBD0
:100F9000D07106EB61011FFA81FA0121FF2000F0F8
:100FA0000BFA032000F027FA044604F0F0040AF0DC
:100FB0000301304661F39F0004432146032000F003
:100FC000FBF9C6F38701192000F0F6F9CAF387018F
:100FD0001A2000F0F1F9322000F00DFA044604F076
:100FE000C00409F00701284661F3DF0004432146ED
:100FF000322000F0E1F9C5F3C701172000F0DCF959
:10100000C9F3C701182000F0D7F9BDE8F087000048
:1010100000180240A4024342000043424D49443AB2
:1010200025640D0A000000004849443A25640D0A71
:10103000000000000E540008FE560008D4560008B8
:10104000E25600080E5700082DE9F04104460D460F
:10105000E11704EB91718910A4EB810111B101201A
:10106000BDE8F081E91705EB91718910A5EB8101CD
:1010700009B10220F4E72046E11704EB9171C1F3B6
:101080008F072846E91705EB9171C1F38F06002100
:10109000FF2000F091F90421E02000F08DF9F9B271
:1010A0005A2000F089F9F1B25B2000F085F9C7F30E
:1010B0000128042000EAA61040EA080841465C2006
:1010C00000F07AF90021E02000F076F90020C7E76F
:1010D0002DE9F0478046894614461D46E11704EB8A
:1010E00091718910A4EB810111B10120BDE8F08755
:1010F000E91705EB91718910A5EB810109B1022077
:10110000F4E72046E11704EB9171C1F38F062846FE
:10111000E91705EB9171C1F38F0A0021FF2000F060
:101120004BF90421E02000F047F9F1B2512000F022
:1011300043F90AF0FF01522000F03EF908F0FF01E8
:10114000532000F039F909F0FF01542000F034F980
:10115000802000EA6A07702000EA2910074308206F
:1011600000EA66100743C8F30220074339465520BA
:1011700000F022F9802000EAA601572000F01CF9B7
:101180000021E02000F018F90020AFE770B5044618
:101190000D460021FF2000F00FF90421E02000F0AF
:1011A0000BF9C4F3C701C02000F006F9C5F3C7016D
:1011B000C12000F001F96007860E05F00700064324
:1011C000802000EA2410064331468C2000F0F4F819
:1011D0000021E02000F0F0F8002070BD1CB50121D6
:1011E000082002F0A5F9C020009001208DF804002D
:1011F00000208DF8060002208DF8050001208DF8F2
:10120000070069468F4801F0F5FEC0218D4801F0C6
:101210006DFF8C48006820F440408A490860084609
:10122000006840F4804008601CBD10B5012086496C
:1012300008608649C1F89802322001F0B1FC002014
:1012400081490860322001F0ABFC00207F49C1F8E1
:10125000980210BD10B500207B490860322001F0D3
:101260009FFC01207949C1F89802322001F098FCD6
:10127000012075490860322001F092FC10BD10B5C4
:10128000322001F08DFC01206F4908606F49C1F8E0
:101290009802322001F084FC00206B49091F08608D
:1012A000322001F07DFC00206849C1F89C02322008
:1012B00001F076FC10BD70B5044600261BE004F07A
:1012C000800018B101206049086002E000205E49FA
:1012D00008606006040E322001F062FC01205A49C9
:1012E000091F0860322001F05BFC00205749C1F85B
:1012F0009802701CC6B2082EE1DB5248006820F448
:10130000404050490860084600680860322001F0FB
:1013100047FC01204C49091F0860322001F040FCC5
:101320004A48D0F81C0208B1012500E00025002041
:101330004549091F08604348006820F4404041497E
:1013400008600846006840F480400860284670BD88
:1013500070B500243B48006820F4404039490860DB
:10136000084600680860082517E0322001F018FCE4
:1013700001203549091F08606006040E3348D0F883
:101380001C0208B1601CC4B2322001F009FC00202C
:101390002D49091F0860681EC5B2002DE5DC2948EB
:1013A000006820F44040274908600846006840F47F
:1013B00080400860204670BD70B505460C4600268A
:1013C000FFF733FF6020FFF776FF00B101266420AE
:1013D00001F0E6FB2846FFF76EFF00B1012664200E
:1013E00001F0DEFB2046FFF766FF00B10126FFF7A4
:1013F00031FF304670BD70B504460025FFF715FF7C
:101400006020FFF758FF642001F0CAFB2046FFF779
:1014100052FF642001F0C4FBFFF71CFF642001F0C1
:10142000BFFBFFF702FF6120FFF745FF642001F0DB
:10143000B7FBFFF78DFF0546FFF721FFFFF70AFF18
:10144000284670BD000C02409C824142008041420F
:1014500010B5012002F0E9FC012809D1FEF72DFFAB
:10146000012002F0EEFC6F480078401C6D490870C6
:1014700010BDF0B58FB004460D4616461F4601213B
:10148000880502F055F8684802F0E0FC00BF6648A5
:1014900002F005FE0028FAD14FF00070009063487A
:1014A00001900294002003900495059006974FF454
:1014B0008050079008960011099040020A9004207D
:1014C0000B9003200C9000200D900E90694656481A
:1014D00002F05EFD0FB0F0BD0EB50121172002F045
:1014E00027F80121084602F034F802208DF80800A0
:1014F00000208DF80A0003208DF8090001208DF8E6
:101500000B005020019001A9494801F073FDC02053
:10151000019001A9474801F06DFD4FF43C60019036
:1015200001A9454801F066FD6020019001A94348EA
:1015300001F060FD0D2204213D4801F0E6FD0D2281
:1015400006213B4801F0E1FD0D220721394801F059
:10155000DCFD0D220621384801F0D7FD0D220721C0
:10156000354801F0D2FD0D220821334801F0CDFDB0
:101570000D220921304801F0C8FD0D220B212E4813
:1015800001F0C3FD0D2206212A4801F0BEFD0D2207
:1015900005212A4801F0B9FD0D220621274801F056
:1015A000B4FD02F08DFB0020254908804881888128
:1015B0000881C8802020888000204880084602F0EA
:1015C0008BFB0121084602F007FC012002F0E3FB3F
:1015D0004E208DF8000001208DF8010002208DF8CA
:1015E000020001208DF80300684601F012FC0EBDD8
:1015F00010B501210C4802F005FD012002F0DAFBD4
:1016000010BD10B5002002F0D5FB00BF07482838F8
:10161000006800F001000028F8D10021024802F023
:10162000F1FC10BD80010020286402402800055014
:101630000000024000040240000802400010024086
:10164000D0A1002070B540F22551CE4802F0A4FA96
:10165000A0B1CC4802F0DEF9C4B2CB480088B0F5A6
:10166000C87F07DAC8490888411CC74A1180C749A2
:101670000C5403E04FF40040C349088040F2244179
:10168000C04802F089FA002833D0C148006810B37E
:10169000C0A1BE4803F044FDC04908600846006888
:1016A000C8B1202208460168BD4803F04BFD012265
:1016B000BB490831BB4803F045FD0122B8490A3156
:1016C000B94803F03FFD0B22B5491231B74803F08A
:1016D00039FDFEF773FEAB4802F09CF9C1B2AA488F
:1016E0000588681CA84A1080A8484155002011466A
:1016F000088070BD10B588B004460121084601F08D
:1017000017FF0121480401F05CFF07220221A848CD
:1017100001F0FBFC07220321A54801F0F6FC0C2098
:10172000069002208DF81C008DF81D0000208DF819
:101730001E0001208DF81F0006A99D4801F05AFCEB
:1017400002940020ADF80C00ADF80E00ADF81000CA
:10175000ADF814000C20ADF8120002A9894802F07F
:10176000A2F80121874802F026F9012240F2255112
:10177000844802F0D6F9012240F22441814802F067
:10178000D0F926208DF8040003208DF805000420F0
:101790008DF8060001208DF8070001A801F039FB43
:1017A00000207949088008B010BD70B504460D4688
:1017B0002946204602F02AF900BF8021204602F087
:1017C000D5F90028F9D070BD70B506460C46002545
:1017D00000BF615D3046FFF7E8FF6D1C605D0028CB
:1017E000F7D170BD2DE9F04704460D4616461F4659
:1017F000DDE908896FA16348FFF7E6FF4FF47A70CF
:1018000001F016FA6EA15F48FFF7DEFF4FF47A7021
:1018100001F00EFA2B4622466DA1734803F0D2FB6D
:1018200071495848FFF7D0FF41F2883001F000FAC3
:101830006EA15448FFF7C8FF40F2DC5001F0F8F900
:101840003B46324673A17F4803F0BCFB7D494D48BF
:10185000FFF7BAFF40F2DC5001F0EAF94A467AA1FC
:10186000804803F0AFFB7F494648FFF7ADFF40F2E9
:10187000DC5001F0DDF942467BA1824803F0A2FB77
:1018800080494048FFF7A0FFBDE8F08738B504461F
:101890000D464FF4FA7001F0CBF97B4A7BA18148E9
:1018A00003F090FB7F493748FFF78EFF4FF4FA7043
:1018B00001F0BEF923467C4A7CA18748009503F0DD
:1018C00081FB85492F48FFF77FFF38BD7CB5054672
:1018D00082A103C9CDE9000100202B49088012E054
:1018E000012001F0A5F92848008800F4004050B11B
:1018F0000020254908806946244803F011FC04466D
:101900000CB120467CBD681E80B2051EE8D100BF28
:10191000F8E730B5ADF5017D04460D4625A003F08E
:1019200045FB4FF47A7001F083F92B46224628A13B
:1019300041A803F047FB41A96AA003F037FB41F23D
:10194000883001F075F968A003F030FB4FF47A702D
:1019500001F06EF9684B694A69A101A803F032FBF6
:1019600001A960A003F022FB41F2883001F060F988
:101970006AA003F01BFB4FF47A7001F059F90DF5E2
:10198000017D30BD0044004084010020DEA1002024
:101990002C000020636172446174610088010020A2
:1019A000A6A800208C0100208D010020E6A80020C0
:1019B0000000024041542B5253540D0A0000000015
:1019C00041542B43574D4F44453D310D0A00000013
:1019D00041542B43574A41503D222573222C222546
:1019E00073220D0A00000000A6A5002041542B43DD
:1019F0004950534E54504346473D312C382C226EAB
:101A00007470312E616C6979756E2E636F6D220D65
:101A10000A00000041542B4D515454555345524334
:101A200046473D302C312C224E554C4C222C222541
:101A300073222C222573222C302C302C22220D0ACA
:101A400000000000A6A2002041542B4D51545443E5
:101A50004C49454E5449443D302C222573220D0AF1
:101A600000000000A6A3002041542B4D51545443C4
:101A70004F4E4E3D302C222573222C313838332CDA
:101A8000310D0A00A6A400202B01002041542B4D4B
:101A90005154545355423D302C222573222C310D84
:101AA0000A000000A6A600204901002041542B4D49
:101AB0005154545055423D302C222573222C227B08
:101AC0005C2225735C223A5C2225735C227D222CE9
:101AD000312C300D0A000000A6A7002074696D6546
:101AE000000000002573000041542B4349504D4F26
:101AF00044453D310D0A0000400000203000002028
:101B000041542B43495053544152543D2254435065
:101B1000222C222573222C25730D0A0041542B43BD
:101B2000495053454E440D0A0000000000B587B0EF
:101B30000121022001F0FCFC0121042001F041FD03
:101B40000220059001208DF8180000208DF81A0061
:101B500002208DF8190005A9644801F04BFA022112
:101B6000624801F0C5FA0420059000208DF81800A5
:101B700002208DF81B0005A95C4801F03BFA00200B
:101B8000ADF81000ADF80A0059480068401E0390F7
:101B90005320ADF8080002A9564802F0D8FB0121F5
:101BA000544803F09DF801221146524803F070F8A2
:101BB0000021504802F054FC1E208DF80400002043
:101BC0008DF8050001208DF806008DF8070001A8AA
:101BD00001F01FF948A003F0E9F907B000BD10B506
:101BE0000021444802F0FCFB002047490880012105
:101BF000404802F035FC10BD10B500213D4802F010
:101C00002FFC10BD10B501213A4803F058F830B14F
:101C10000121384803F064F801203C49086010BDF8
:101C200010B50024334802F0DFFB044400203149A2
:101C300024310860322000F0B3FF204610BD10B5FB
:101C40002DED048B0024002008EE900A9FED300A51
:101C5000B0EE408A9FED2E0AB0EE409A37E00120A8
:101C60002C490860142000F09BFF00202A49C1F88D
:101C7000840200BF27487C38006818B923480068F0
:101C80000028F7D0FFF7ABFF00BF22487C38006880
:101C9000012803D11D4800680028F6D0FFF7ACFFEB
:101CA0001A48006810B1002018490860FFF7B8FF13
:101CB00008EE900AB8EE680ADFED180A80EE201AE6
:101CC000B0EE419A38EE090AB0EE408A641C052C49
:101CD000C5DB00EE104AB8EEC00AC8EE000AB0EE4E
:101CE000608AB0EE480ABDEC048B10BD00040240CF
:101CF0009801002000080040B3F5CABCBBAFB3C9CF
:101D0000B9A60D0A000000009001002094010020F7
:101D1000000000008482404200804042000068428F
:101D200000B585B00121084601F002FC01218803BD
:101D300001F058FC00208DF808008DF80A00022000
:101D400001908DF80B0001208DF8090001A91F48B2
:101D500001F050F90220039001208DF812000020BC
:101D60008DF8100008208DF8110003A803F0A2F8E8
:101D700007208DF8000000208DF801008DF802008A
:101D800001208DF80300684601F043F8012100208E
:101D900001F05DFF05B000BD1CB5022003F0F0F8B6
:101DA00090B103230E222821202000F09DFB08483B
:101DB0000849094B094ACDE9001009490948FFF7CC
:101DC00011FD022003F0E7F81CBD000000000240F6
:101DD000D9000020AC0000206B000020570000203C
:101DE0004D000020460000200A2000BF011EA0F187
:101DF0000102D0B2FAD1704710B52021FB4801F0A2
:101E000077F94FF48051FA4801F070F9FFF7ECFFD1
:101E10002021F64801F06AF910BD10B52021F348E1
:101E200001F064F9FFF7E0FF4FF48051F04801F052
:101E30005DF9FFF7D9FF4FF48051ED4801F058F9F3
:101E4000FFF7D2FF10BD70B5044600251DE004F079
:101E5000800020B12021E54801F048F903E020216D
:101E6000E24801F045F9FFF7BFFF4FF48051E04829
:101E700001F03CF9FFF7B8FF4FF48051DC4801F066
:101E800037F96006040E681CC5B2082DDFDB70BD93
:101E900010B52021D54801F029F94FF48051D448DC
:101EA00001F024F9FFF7A0FF2021D04801F020F92C
:101EB000FFF79AFF4FF48051CD4801F019F9FFF771
:101EC00093FF10BD70B505460C46FFF7E1FF782083
:101ED000FFF7B9FFFFF7A1FF1CB14020FFF7B3FFE9
:101EE00002E00020FFF7AFFFFFF797FF2846FFF75C
:101EF000AAFFFFF792FFFFF77FFF70BD10B5044602
:101F00001CB90021A620FFF7DDFF012C03D1002121
:101F1000A720FFF7D7FF10BD10B504463CB900213C
:101F2000C820FFF7CFFF0021A120FFF7CBFF012C36
:101F300007D10021C020FFF7C5FF0021A020FFF737
:101F4000C1FF10BD10B500218D20FFF7BBFF0021A0
:101F50001420FFF7B7FF0021AF20FFF7B3FF10BD3C
:101F600010B500218D20FFF7ADFF00211020FFF7F5
:101F7000A9FF0021AE20FFF7A5FF10BD70B500241A
:101F80002BE004F1B001C8B20021FFF79BFF002154
:101F90000846FFF797FF00211020FFF793FFFFF798
:101FA00077FF7820FFF74FFFFFF737FF4020FFF75D
:101FB0004AFFFFF732FF002509E08E4901EBC5011A
:101FC000085DFFF740FFFFF728FF681CC5B2802DB2
:101FD000F3DBFFF711FF601CC4B2082CD1DB70BD2E
:101FE00070B500240CE0002506E00020814901EBDB
:101FF000C5010855681CC5B2802DF6DB601CC4B253
:10200000082CF0DBFFF7BAFF70BDF0B514460B46A5
:10201000CF1701EB5777C7F3C702CF1701EB5777FD
:10202000FF10A1EBC707FEB20123B340DDB24CB1F4
:10203000704B03EBC0039B5C2B436E4F07EBC00759
:10204000BB541AE06B4B03EBC0039B5CDB43694F53
:1020500007EBC007BB54674B03EBC0039B5C2B43F0
:10206000644F07EBC007BB54624B03EBC0039B5CA0
:10207000DB43604F07EBC007BB54F0BD2DE9FF4FBA
:1020800084B081468A460020029083460698A0EBE1
:1020900009040798A0EB0A06CDF80490CDF800A03B
:1020A000002C01DD012705E00CB9002702E04FF00C
:1020B000FF376442002E02DD4FF0010806E016B93A
:1020C0004FF0000802E04FF0FF386642B44201DDF5
:1020D000254600E03546002003901EE0009AD1B26C
:1020E000019AD0B2119AFFF790FF02982044029013
:1020F000B3440298A84205DD0298401B0290019863
:1021000038440190AB4504DDABEB050B009840442F
:1021100000900398401C80B20390691C0398884289
:10212000DCDB08B0BDE8F08F2DE9F04306460F4632
:1021300090460025444643E03A1BD1B27219D0B212
:102140000122FFF762FF3A1BD1B2721BD0B201220B
:10215000FFF75BFF3A19D1B2721BD0B20122FFF731
:1021600054FF3A19D1B27219D0B20122FFF74DFFD4
:102170007A19D1B23219D0B20122FFF746FF7A1B89
:10218000D1B23219D0B20122FFF73FFF7A1BD1B290
:10219000321BD0B20122FFF738FF7A19D1B2321BBD
:1021A000D0B20122FFF731FF6D1C05FB05F004FBE7
:1021B000040008FB1809B9F1000F01DD641E6D1E53
:1021C0006000604308FB08F18842B5DABDE8F0839F
:1021D0002DE9FE4F0746884692461C460197CDF8EA
:1021E0000080082C08D14FF0060925E0000C0240C1
:1021F00000180240F1A800202046E31704EB5373B7
:10220000DB1021464FEAE47C04EB5C7C4FEAEC0CEB
:10221000A4EBCC0CBCF1000F02D04FF0010C01E09C
:102220004FF0000C6344224604EBD27C4FEA6C0C66
:1022300003FB0CF303F0FF09AAF12000C6B200254E
:102240005EE0082C07D106EB4600FC4901EB40009C
:1022500010F805B01DE00C2C07D106EB4600F8493C
:1022600001EB800010F805B013E0102C05D1F54803
:1022700000EB061010F805B00BE0182C07D106EBA8
:10228000C600F14901EB800010F805B001E0BDE89F
:10229000FE8F002002901CE00BF0010028B14146A7
:1022A00038460C9AFFF7B1FE09E00C9808B90120F6
:1022B00000E00020024641463846FFF7A6FE4FEAFE
:1022C0006B0B08F1010000F0FF080298401CC0B23F
:1022D000029002980828DFDB781CC7B2082C0BD0CC
:1022E00004EBD4714A100199791A8A4204D1019FF2
:1022F00000980830C0B20090DDF80080681CC5B2BC
:102300004D459EDB00BFC2E72DE9F84106460F466A
:1023100014461D46DDF81C8013E0CDF800802278BD
:102320002B4639463046FFF753FF082D02D1B01D2A
:10233000C6B205E0284605EBD07106EB6101CEB2CE
:10234000641C2078202802DB20787E28E5DDBDE8AB
:10235000F88110B50246012000E050430B1EA1F1A8
:102360000104E1B2F9D110BD2DE9FF4F82B006465C
:1023700091461F46DDE90F4A4FF0000B082C01D1B2
:102380004FF0020B002530E0781B401EC1B20A203E
:10239000FFF7DFFFB9FBF0F00A21B0FBF1F201FB20
:1023A0001208B8F1000F0ED104EBD4710BEB6101F0
:1023B00001FB0561C8B223463022CDE900A4039990
:1023C000FFF706FF0FE004EBD4710BEB610101FB9B
:1023D0000561C8B208F13001CAB22346CDE900A4B4
:1023E0000399FFF7F5FE681CC5B2BD42CCDB06B011
:1023F000BDE8F08F2DE9FC4F0746884616461C467F
:10240000BB46CDF804802046E21704EB5272D2108E
:102410002146E31704EB5373DB10A4EBC3030BB1AA
:10242000012300E000231A44624392B20092002587
:1024300055E0102C05D1854800EB461010F805A09A
:102440001BE0182C07D106EBC600814901EBC00048
:1024500010F805A011E0202C05D17E4800EBC61035
:1024600010F805A009E0402C05D17B4800EB462080
:1024700010F805A001E0BDE8FC8F4FF000091CE05A
:102480000AF0010028B1414638460B9AFFF7BDFD1E
:1024900009E00B9808B9012000E0002002464146FF
:1024A0003846FFF7B2FD4FEA6A0A08F1010000F072
:1024B000FF0809F1010000F0FF09B9F1080FDFDBA7
:1024C000781CC7B2A7EB0B00A04204D15F4601986D
:1024D0000830C0B20190DDF80480681C85B2009815
:1024E0008542A6DB00BFC6E72DE9F84305460C464A
:1024F00016461F464FF010094FF4FA7000F098FB93
:102500004FF0000810E001201023324629460090C9
:102510002046FFF76FFF04EB0900C4B2701CC6B27F
:1025200008F1010000F0FF08B845ECDBFFF726FDDD
:10253000BDE8F88308B58046894692460026002704
:102540004BE04FB91023324618218020CDF800A06F
:10255000FFF750FF701CC6B2464522D14FF0000B6A
:102560001AE0012410E000250AE03C4800EBC4001A
:10257000415D601E394A02EBC0004155681CC5B27E
:10258000082DF2DB601CC4B2902CECDBFFF7F6FCEC
:102590000BF1010000F0FF0B4FEA09105845E0DC99
:1025A0000026781CC7B2102F00D10027012410E0AC
:1025B00000250AE0294800EBC400415D601E274A5F
:1025C00002EBC0004155681CC5B2082DF2DB601C4F
:1025D000C4B2902CECDBFFF7D1FCB2E72DE9FF4F42
:1025E00005460E4617461C46DDF838904FF0000AA7
:1025F0000095B3462046E21704EB5272D2102146F2
:10260000E31704EB5373DB10A4EBC3030BB10123FB
:1026100000E000231A44D4B24FF0000858E0002034
:1026200003904EE00D9810F80A0002900AF10100A4
:102630001FFA80FA0020019030E0000036570008B1
:102640005E590008D25D0008C26300081E710008D0
:102650003E7300088673000806740008F1A8002085
:10266000029800F0010028B14A4631462846FFF79B
:10267000CCFC0AE0B9F1000F01D1012000E00020FC
:10268000024631462846FFF7C0FC029840100290EF
:10269000701CC6B20198401CC0B201900198082875
:1026A000DEDB681CC5B20098281AB84204D1009D30
:1026B0000BF1080000F0FF0B5E460398401CC0B20F
:1026C00003900398B842ADDB08F1010000F0FF0869
:1026D000A045A4DBBDE8FF8F1CB50121482000F018
:1026E00027FF2020009001208DF804008DF80600BF
:1026F00003208DF8050001208DF8070069464E483B
:1027000000F078FC1020009000208DF8060069464B
:10271000494800F06FFC4FF48050009001208DF884
:1027200004008DF8060003208DF8050001208DF8C7
:1027300007006946414800F05DFC10213E4800F06A
:10274000D7FCC82000F074FA10213B4800F0CEFC02
:102750000021AE20FFF7B6FB00210846FFF7B2FBD1
:1027600000211020FFF7AEFB00214020FFF7AAFB5D
:1027700000218120FFF7A6FB0021CF20FFF7A2FB5D
:102780000021A120FFF79EFB0021C820FFF79AFB44
:102790000021A620FFF796FB0021A820FFF792FB5F
:1027A00000213F20FFF78EFB0021D320FFF78AFB9B
:1027B00000210846FFF786FB0021D520FFF782FBAA
:1027C00000218020FFF77EFB0021D920FFF77AFB54
:1027D0000021F120FFF776FB0021DA20FFF772FBE2
:1027E00000211220FFF76EFB0021DB20FFF76AFBC0
:1027F00000214020FFF766FB00212020FFF762FB4D
:1028000000210220FFF75EFB00218D20FFF75AFB1D
:1028100000211420FFF756FB0021A420FFF752FBF4
:102820000021A620FFF74EFBFFF7DAFB0021AF20C7
:10283000FFF748FB1CBD0000000C024000180240DE
:1028400070B504460D462946204601F0DFF800BF6A
:102850008021204601F08AF90028F9D070BD70B5BA
:1028600006460C46002500BF615D3046FFF7E8FFD5
:102870006D1C605D0028F7D170BD70B504460D4633
:102880004FF47A7000F0D4F93DA14148FFF7E7FF1B
:102890004FF4FA7000F0CCF93EA13D48FFF7DFFF9E
:1028A0004FF4FA7000F0C4F93DA13948FFF7D7FFA3
:1028B0004FF4FA7000F0BCF93CA13548FFF7CFFFA8
:1028C0004FF4FA7000F0B4F922463EA1414802F0FC
:1028D00079FB40492E48FFF7C2FF4FF4FA7000F031
:1028E000A7F929462A48FFF7BAFF4FF47A7000F09B
:1028F0009FF91A212648FFF7A3FF4FF4FA7000F062
:1029000097F970BD10B586B004460121022000F091
:102910000FFE0121880400F054FE07220A212E48F0
:1029200000F0F3FB07220B212B4800F0EEFB4FF4E5
:102930004060049002208DF814008DF815000020EE
:102940008DF8160001208DF8170004A9224800F028
:1029500051FB00940020ADF80400ADF80600ADF87E
:102960000800ADF80C000C20ADF80A0069460848D4
:1029700000F099FF0121064801F01DF806B010BDD6
:1029800041542B435343533D2247534D220D0A00DC
:102990000048004041542B434D47463D310D0A004D
:1029A00041542B435343413F0D0A000041542B43F4
:1029B000534D503D31372C3136372C302C380D0AE1
:1029C0000000000041542B434D47533D2225732204
:1029D0000D0A000074AD00200004024010B5012172
:1029E000504802F06CF9F0B14F480068401E4E4963
:1029F00008600846006870B94C480068086000200C
:102A00004B490860AF214FF0804001F08EFE00215D
:102A1000444801F025FD0021424801F0E1FC01217C
:102A2000404802F05DF910BD7FB505460C46012116
:102A3000022000F0C6FD0195ADF808400020ADF879
:102A40000800ADF802006946364801F080FC01211B
:102A5000344802F045F901221146324802F018F9D3
:102A60000021304801F0FCFC1D208DF80C000320F3
:102A70008DF80D008DF80E0001208DF80F0003A8D1
:102A800000F0C7F97FBD30B58BB004460D4601217B
:102A9000084600F096FD0121084600F049FD01229C
:102AA0000021244800F031FB0320099002208DF81A
:102AB000280003208DF8290000208DF82A0001202D
:102AC0008DF82B0009A91B4800F094FAA8B2ADF8C4
:102AD00018000020ADF81A000794ADF8200006A9F0
:102AE0004FF0804001F033FC6020ADF8040001207D
:102AF000ADF806000220ADF810000020039001A9F7
:102B00004FF0804001F0B8FC0821C80601F041FEFA
:102B10000121880701F086FC0121880701F0A0FC53
:102B20000BB030BD000400409C010020A00100203B
:102B300024000020000002401CB50121022000F00A
:102B4000F7FC00208DF804008DF806008DF80700D2
:102B500002208DF805004FF470400090694602484D
:102B600000F048FA1CBD00000004024010B5044605
:102B70006FF0040000F09AF9E11704EB5171C1F312
:102B8000C701394A11701046007800EB4001C1EBD3
:102B9000C0104FF6FF7101EAC0003449088010BD33
:102BA0000146314A12784A434FF0E0235A6100222D
:102BB0009A611A46126942F001021A6100BF4FF091
:102BC000E022106900F001021AB100F48032002AFC
:102BD000F5D04FF0E022126922F001024FF0E0231D
:102BE0001A6100229A6170470146204A12884A43BE
:102BF0004FF0E0235A6100229A611A46126942F0AE
:102C000001021A6100BF4FF0E022106900F00102DA
:102C10001AB100F48032002AF5D04FF0E022126998
:102C200022F001024FF0E0231A6100229A617047FE
:102C300070B504464FF4077094FBF0F0C6B24FF441
:102C4000077094FBF0F100FB114085B205E04FF4F2
:102C50000770FFF7C9FF701EC6B2002EF7D115B17D
:102C60002846FFF7C1FF70BDA4010020A601002087
:102C7000014600BF704700BF4F4A128802F0400271
:102C8000002AF9D0C2B24C4B9A80704710B588B078
:102C900004460121084600F04BFC0121102000F001
:102CA000A1FC07220921454800F02FFA07220A213A
:102CB000424800F02AFA4FF4C060069002208DF8D6
:102CC0001C008DF81D0000208DF81E0001208DF8DD
:102CD0001F0006A9394800F08DF902940020ADF8D4
:102CE0000C00ADF80E00ADF81000ADF814000C208B
:102CF000ADF8120002A9304800F0D5FD01212E48A0
:102D000000F059FE012240F225512B4800F009FF46
:102D1000012240F22441284800F003FF25208DF8CD
:102D2000040003208DF805008DF8060001208DF8C1
:102D3000070001A800F06DF808B010BD10B540F212
:102D400025511D4800F028FF10B31B4800F062FE1B
:102D5000C4B21B48008800F40040C8B91848008875
:102D600000F4804060B10A2C03D000201449088090
:102D700020E01348008840F400401149088019E021
:102D80000D2C06D10E48008840F480400C49088084
:102D900010E00B480088C0F30D000A490C540848A5
:102DA0000088401C0649088008460088C72801DDC5
:102DB0000020088010BD000000100140000002400B
:102DC000AC01002074AF0020094880470948004743
:102DD000FEE7FEE7FEE7FEE7FEE7FEE7FEE7FEE7CB
:102DE000FEE7FEE704480549054A064B7047000028
:102DF000C50A000889010008A0B00020A0B6002084
:102E0000A0B20020A0B2002032490143324A116032
:102E1000704770B5002100230F22C4781CB32E4CDC
:102E2000246804F4E064C4F5E064C4F30721C1F14C
:102E30000404E3B20A4144789C40E1B2847814402F
:102E400021430C07210E254C05786155047804F0C8
:102E50001F050124AC4005786D11AD0005F1E0259A
:102E6000C5F8004109E0047804F01F050124AC40D6
:102E70001B4D0678761145F8264070BD194A0A4068
:102E80000243154B1B1F1A60704739B1124A121DBD
:102E900012680243104B1B1D1A6006E00E4A121DF9
:102EA000126882430C4B1B1D1A607047042808D11E
:102EB0004FF0E021096941F004014FF0E022116177
:102EC00007E04FF0E021096921F004014FF0E02212
:102ED000116170470000FA050CED00E000E400E02D
:102EE00080E100E080FFFF1F10B50446984884424F
:102EF00008D10121084600F086FB0021012000F0E6
:102F000082FB76E09348844208D10121022000F040
:102F10007AFB0021022000F076FB6AE08E488442B2
:102F200008D10121042000F06EFB0021042000F0F4
:102F30006AFB5EE08948844208D10121082000F044
:102F400062FB0021082000F05EFB52E084488442CE
:102F500008D10121102000F056FB0021102000F0C4
:102F600052FB46E07F48844208D10121202000F036
:102F70004AFB0021202000F046FB3AE07A488442D8
:102F800008D10121402000F03EFB0021402000F04C
:102F90003AFB2EE07548844208D10121802000F0E0
:102FA00032FB0021802000F02EFB22E0704884429A
:102FB00008D10121801500F026FB0021A01500F0AA
:102FC00022FB16E06B48844208D10121401500F035
:102FD0001AFB0021601500F016FB0AE066488442E7
:102FE00007D10121001500F00EFB0021201500F093
:102FF0000AFB10BDF0B50A4600210023002400BFE3
:103000003DE0012505FA01F3156805EA03049C4239
:1030100034D105684F000326BE40B54305601579DD
:103020004E00B5400668354305601579012D02D084
:103030001579022D16D185684F000326BE40B54391
:10304000856055794E00B540866835438560456892
:1030500001268E40B5434560456896798E40B6B2EC
:1030600035434560C5684F000326BE40B543C56083
:10307000D5794E00B540C6683543C560491C102956
:10308000BFD3F0BD4FF6FF710160002101714171A6
:103090008171C171704708B54FF480320092009A77
:1030A0000A430092009AC261C161009AC261C2697A
:1030B0000092C269009208BD0246002013690B40CD
:1030C0000BB1012000E0002070470146086980B282
:1030D00070470246002053690B400BB1012000E00D
:1030E000002070470146486980B2704701837047ED
:1030F000418370470AB1018300E041837047416119
:10310000704742694A4042617047F0B5002300248D
:103110004D07ED0E02FA05F3CE1000F1200555F82B
:1031200026504E07F70E0F26BE40B543CF1000F1D4
:10313000200646F82750CE1000F1200555F82650FD
:1031400045EA0304CE1000F1200545F82640F0BD05
:10315000000002400004024000080240000C02404F
:10316000001002400014024000180240001C0240FF
:10317000002002400024024000280240F948006874
:1031800040F00100F74908600020F6490831086066
:10319000F4480068F4490840F2490860F348091D02
:1031A0000860F348EF4984310860F0481038091D81
:1031B0000860EC48006820F48020EA49086000209C
:1031C000E8490C310860E7498C31086070470021FC
:1031D000E44A921C117011460870704710B5014600
:1031E0000022002300204A11012A02D1DD4C23686D
:1031F00008E0022A03D1DB4C7034236802E0D94C8A
:103200007434236801F01F02012494401C400CB167
:10321000012000E0002010BD38B5002000900024FF
:10322000002500BF3120FFF7D9FF05460098401C5C
:1032300000900098B0F5A04F01D0002DF2D03120C1
:10324000FFF7CCFF08B1012400E00024204638BD80
:1032500001460020C34A106820F0F80040EAC1008F
:1032600010607047C349086070470021BD4A703242
:1032700011701170012802D004280AD104E0012144
:10328000B84A7032117005E00521B64A70321170EB
:1032900000E000BF00BF7047B7490860704770B5D5
:1032A000049C41EA82150126C6EB530645EA064511
:1032B000054345EA0465AB4E361D356070BDAD492A
:1032C00008667047820142EA0172A64B84331A6095
:1032D0007047A8498866704710B5830143EA0163C7
:1032E00043EA02739F4C8834236010BDA1490867EC
:1032F0007047A049C864704702460020994B0833C4
:10330000186820F0EC6042EA01031843954B08333B
:103310001860704702460020924B0833186820F06E
:10332000784042EA010318438E4B08331860704717
:10333000014600208B4A0832106820F00300084341
:103340001060704787480830006800F00C00704734
:1033500001460020834A0832106820F0F00008433C
:1033600010607047014600207E4A0832106820F441
:10337000E05008431060704701460020794A083247
:10338000106820F4604040EAC10010607047F0B55A
:10339000002100220024022500260223714F083755
:1033A0003F6807F00C0121B1042905D0082937D165
:1033B00005E0724F076036E0714F076033E0694FF8
:1033C0003F1D3F68C7F38056664F3F1D3F6807F0BB
:1033D0003F036EB16A4FB7FBF3F7DFF888C10CF11A
:1033E000040CDCF800C0CCF3881C07FB0CF40CE0E8
:1033F000624FB7FBF3F7DFF86CC10CF1040CDCF89B
:1034000000C0CCF3881C07FB0CF4564F3F1D3F68EF
:10341000C7F301477F1C7D00B4FBF5F7076002E0AE
:10342000564F076000BF00BF4E4F08373F6807F098
:10343000F0010909534F7A5C0768D7404760494F4C
:1034400008373F6807F4E051890A4E4F7A5C4768B5
:10345000D7408760434F08373F6807F46041490B06
:10346000484F7A5C4768D740C760F0BD002100F440
:103470004072B2F5407F0AD13A4A0832116821F40D
:10348000F811414A02401143364A08321160354A68
:1034900070321268C0F30B031A43324B70331A6058
:1034A00070473549443908607047334940390860EE
:1034B000704736490860704701460020294A8C321F
:1034C000106820F01F004A1E1043264A8C321060FC
:1034D000704701460020234A8C32106820F4F850CF
:1034E0004A1E40EA02201F4A8C3210607047014693
:1034F00000201C4A8C32106820F4401008431060F1
:10350000704701460020174A8C32106820F44000B2
:1035100008431060704701460020124A8C32106840
:1035200020F4403008431060704719490860704724
:1035300039B10C4A3032126802430A4B30331A60F8
:1035400006E0084A303212688243064B30331A6074
:103550007047F9B1034A343212680243014B3433E5
:103560001A601CE000380240FFFFF6EA1030002429
:103570000030002000004742800E47420024F40043
:1035800000127A00AE010020FFFCFF0F5C014742F1
:10359000E01147428F4A126882438E4B1A6070478F
:1035A00039B18C4A121D126802438A4B1B1D1A60E6
:1035B00006E0884A121D12688243864B1B1D1A6062
:1035C000704739B1834A0C3212680243814B0C3385
:1035D0001A6006E07F4A0C32126882437D4B0C333E
:1035E0001A60704739B17B4A103212680243794B36
:1035F00010331A6006E0774A103212688243754B26
:1036000010331A60704739B1724A243A1268024383
:10361000704B243B1A6006E06E4A243A12688243DB
:103620006C4B243B1A60704739B16A4A203A1268E1
:103630000243684B203B1A6006E0664A203A126853
:103640008243644B203B1A60704739B1614A1C3A8F
:10365000126802435F4B1C3B1A6006E05D4A1C3A4D
:10366000126882435B4B1C3B1A60704739B1594A60
:10367000143A12680243574B143B1A6006E0554A4D
:10368000143A12688243534B143B1A60704739B1A5
:10369000504A103A126802434E4B103B1A6006E043
:1036A0004C4A103A126882434A4B103B1A607047EA
:1036B00039B1484A1C3212680243464B1C331A6027
:1036C00006E0444A1C3212688243424B1C331A60A3
:1036D000704739B13F4A2032126802433D4B2033D4
:1036E0001A6006E03B4A203212688243394B20338D
:1036F0001A60704739B1374A243212680243354B99
:1037000024331A6006E0334A243212688243314B74
:1037100024331A60704739B12E4A2C3212680243A2
:103720002C4B2C331A6006E02A4A2C321268824352
:10373000284B2C331A60704739B1264A3032126850
:103740000243244B30331A6006E0224A30321268BA
:103750008243204B30331A607047012808D11D493D
:103760003C31096841F008011A4A3C32116007E017
:1037700018493C31096821F00801164A3C321160B1
:10378000704739B1134A273A12780243114B273B4D
:103790001A7006E00F4A273A127882430D4B273BF6
:1037A0001A7070470B484030006840F0807009493B
:1037B00040310860704701460020064A283A1268E6
:1037C0000A400AB1012000E0002070470149263973
:1037D000087070473438024010B50446FA488442F5
:1037E00008D101211020FFF752FF00211020FFF720
:1037F0004EFF57E0F548844209D101214804FFF704
:1038000035FF00214FF40030FFF730FF4AE0F04869
:10381000844209D101218804FFF728FF00214FF4D9
:103820008020FFF723FF3DE0EA48844209D10121CF
:10383000C804FFF71BFF00214FF40020FFF716FF1D
:1038400030E0E548844209D101210805FFF70EFF69
:1038500000214FF48010FFF709FF23E0DF48844286
:1038600008D101212020FFF712FF00212020FFF7BF
:103870000EFF17E0DA48844209D101218807FFF7DB
:10388000F5FE00214FF08040FFF7F0FE0AE0D5483A
:10389000844207D101214005FFF7E8FE00216005C1
:1038A000FFF7E4FE10BD2DE9FF4705460E46002454
:1038B000A14600BFA046B08900B100BF2C8A24F405
:1038C0004054F08804432C82AC8941F20C6084435C
:1038D000B08831890843718908430443AC81AC8ABC
:1038E00024F44074B0890443AC826846FFF74FFD6E
:1038F000B548854202D0B948854202D1DDF80C9026
:1039000001E0DDF80890A88900F4004040B109EB1F
:10391000C90000EB091031684900B0FBF1F707E07E
:1039200009EBC90000EB091031688900B0FBF1F721
:103930006420B7FBF0F004012009642101FB10783A
:10394000A88900F4004040B1322000EBC800B0FB71
:10395000F1F000F00700044308E0322000EB08100B
:103960006421B0FBF1F000F00F0004432C81BDE8AE
:10397000FF874FF41651016000218180C1800181D1
:103980000C21418100218181704710B50246002041
:10399000108A20F470600B884C8823438C88234362
:1039A000CC8823431843108210BD00210180418040
:1039B0008180C180704721B1828942F400528281A6
:1039C00004E082894DF6FF731A4082817047028BB2
:1039D00002F47F420283028B0A430283704721B1C3
:1039E000828942F40042828103E08289C2F30E029E
:1039F0008281704721B1828A42F40062828204E0AF
:103A0000828A4FF2FF731A4082827047C1F3080224
:103A10008280704701468888C0F308007047028A98
:103A20004FF6F0731A400282028A0A4302827047FC
:103A300021B1828942F00202828104E082894FF63C
:103A4000FD731A408281704782894FF2FF731A40DA
:103A5000828182890A4382817047028A4FF6DF732E
:103A60001A400282028A0A430282704721B1028A06
:103A700042F48042028204E0028A4BF6FF731A404D
:103A800002827047818941F001018181704721B133
:103A9000828A42F00802828204E0828A4FF6F7733B
:103AA0001A4082827047028BD2B20283028B42EAB2
:103AB00001220283704721B1828A42F02002828271
:103AC00004E0828A4FF6DF731A408282704721B188
:103AD000828A42F01002828204E0828A4FF6EF73FB
:103AE0001A4082827047828A4FF6FB731A408282A4
:103AF000828A0A438282704721B1828A42F002029E
:103B0000828204E0828A4FF6FD731A4082827047F7
:103B10001AB1838A0B43838202E0838A8B438382B8
:103B20007047F0B50346002400260025002040F62B
:103B30006A17B94200D100BF1846C1F3421401F020
:103B40001F06012707FA06F5012C01D10C3004E00D
:103B5000022C01D1103000E014301AB107682F4355
:103B6000076002E00768AF430760F0BD024600202F
:103B7000B1F5007F00D100BF13880B400BB10120CD
:103B800000E00020704701F40072B2F5007F00D120
:103B900000BFCA430280704770B50246002400236C
:103BA0000025002040F66A16B14200D100BFC1F3E3
:103BB000421501F01F03012606FA03F3012D13D16C
:103BC0009689334017E00000001001400044004097
:103BD00000480040004C00400050004000140140EC
:103BE00000780040007C0040022D02D1168A33404C
:103BF00001E0968A33400C12012606FA04F4168876
:103C0000344013B10CB1012000E0002070BD10B5AC
:103C10000022002340F66A14A14200D100BF0A121C
:103C200001249440A3B2DC43048010BD10B50121EF
:103C30008803FFF72CFD00214FF48040FFF727FD9C
:103C400010BD1C49086070471B490862704730B5B9
:103C500000228B071C0F0F2303FA04F2154B0833C5
:103C60008C1053F824309343124C08348D1044F8D0
:103C7000253023468C1053F824308C07240F00FA8B
:103C800004F423430B4C08348D1044F8253030BD28
:103C90000949DC3108607047084908607047002016
:103CA00004492031096801F4807109B1012000E064
:103CB00000207047003801400000274200042742DE
:103CC000002061490860C8601F20486100208861A9
:103CD000C86108624862704700215B4A126844F27A
:103CE00001039A43584B1A601A46116840F6F27263
:103CF0009143028843881A4383881A43C3881A432E
:103D000003891A4343891A4383891A4311434E4A4C
:103D1000116070470021018041808180C180018154
:103D20004181818170474188028841EA0241464AC7
:103D30001162C188828841EA0241434A5162704758
:103D400030B14149096841F004013F4A116005E082
:103D50003D49096821F004013B4A11607047017830
:103D6000427841EA0221827841EA0241C27841EA7E
:103D70000261354A9161704730B13349096841F0B9
:103D80000801314A116005E02F49096821F0080156
:103D90002D4A1160704730B12B49096841F48041C8
:103DA000294A116005E02849096821F48041264A22
:103DB0001160704730B12449096841F00101224A7D
:103DC000116005E02049096821F001011E4A1160D7
:103DD00070471D48806A704729B11B4AD268024368
:103DE000194BDA6006E0184AD268C3439BB21A4006
:103DF000154BDA60704710B50146002000230A1306
:103E000012B9114CA36806E0022A02D10E4C636875
:103E100001E00D4C236903EA01040CB1012000E02C
:103E2000002010BD0849486170470146002000226B
:103E3000054B1B6903EA01020AB1012000E00020E2
:103E4000704701494861704700000550016821F042
:103E5000010101600021016041608160C160016178
:103E600021214161DB49884204D13D21D94A103AE0
:103E700091608CE0D7491831884205D14FF47461C4
:103E8000D44A103A916082E0D2493031884205D15B
:103E90004FF47411CF4A103A916078E0CD4948311F
:103EA000884205D14FF07461CA4A103A91606EE0C1
:103EB000C8496031884204D1C749C64A103AD16026
:103EC00065E0C4497831884204D1C449C14A103AF6
:103ED000D1605CE0BF499031884204D1C049BD4AFD
:103EE000103AD16053E0BB49A831884205D14FF068
:103EF0003D51B84A103AD16049E0BA49884204D1EC
:103F00003D21B84A083A116041E0B649183188426B
:103F100005D14FF47461B34A083A116037E0B149F2
:103F20003031884205D14FF47411AE4A083A11601D
:103F30002DE0AC494831884205D14FF07461A94A5F
:103F4000083A116023E0A7496031884204D1A249B0
:103F5000A44A121F11601AE0A2497831884204D1A4
:103F60009E49A04A121F116011E09E49903188427B
:103F700004D19B499B4A121F116008E09949A8315E
:103F8000884204D14FF03D51964A121F116070478C
:103F900010B500220268944B1A40CC680B6823438A
:103FA0004C6923438C692343CC6923430C6A234324
:103FB0004C6A23438C6A23434C6B23438C6B23430F
:103FC0001A430260426922F00702D1E90B3423430D
:103FD0001A4342610B6943604B6883608B68C3601E
:103FE00010BD0021016041608160C16001614161DB
:103FF0008161C161016241628162C16201634163A9
:104000008163704721B1026842F00102026003E05F
:10401000026822F001020260704721B1026842F496
:104020000042026003E0026822F40042026070472E
:1040300021B1026842F02002026003E0026822F02F
:10404000200202607047416070470146486880B2B4
:10405000704722B1036843F40023036003E0036860
:1040600023F4002303600161704721B1026842F428
:104070008022026003E0026822F48022026070471E
:104080000AB1016100E0C1607047014600200A6882
:1040900002F400220AB1012000E00020704701462E
:1040A00000200A6802F001020AB1012000E00020AD
:1040B0007047014600204A6902F03800704730B569
:1040C00003460A4600200024464DAB4202D2414935
:1040D000103901E04349103902F000550DB14C6828
:1040E00000E00C68414D2C4004EA02050DB10120AE
:1040F00000E0002030BD02463A4B9A4202D23548D9
:10410000103801E03748103801F000531BB1374B2D
:104110000B40C36002E0354B0B408360704710B525
:1041200001F080034BB122B1436943F08003436146
:1041300003E0436923F08003436180290BD02AB157
:10414000036801F01E042343036004E0036801F0E8
:104150001E04A343036010BD70B502460020002476
:104160000025204EB24202D21A4B103B01E01D4BFB
:10417000103B1F4E0E4036B11E2606EAD1241668AB
:1041800006EA040502E0566906F0800501F00056D3
:104190000EB15C6800E01C68144E344004EA01066D
:1041A00016B10DB1012000E0002070BD02460D4B9C
:1041B0009A4202D20748103801E00A48103801F04C
:1041C00000531BB1094B0B40C36002E0074B0B408F
:1041D00083607047106002403D000020400F0020C7
:1041E00000003D20106402403F801CF07D0F7D0FD9
:1041F0003C0F3C0F10B50446FE48844208D1012113
:104200000846FFF744FA00210120FFF740FA9DE03D
:10421000B4F1804F08D101210846FFF727FA0021A9
:104220000120FFF723FA91E0F348844208D10121ED
:104230000220FFF71BFA00210220FFF717FA85E0A2
:10424000EE48844208D101210420FFF70FFA002133
:104250000420FFF70BFA79E0E948844208D10121F4
:104260000820FFF703FA00210820FFF7FFF96DE0AF
:10427000E448844208D101211020FFF7F7F900211A
:104280001020FFF7F3F961E0DF48844208D10121F3
:104290002020FFF7EBF900212020FFF7E7F955E098
:1042A000DA48844208D101210220FFF7F0F9002109
:1042B0000220FFF7ECF949E0D548844209D10121F9
:1042C0000804FFF7E4F900214FF48030FFF7DFF92D
:1042D0003CE0D048844209D101214804FFF7D7F9D6
:1042E00000214FF40030FFF7D2F92FE0CA48844292
:1042F00009D101218804FFF7CAF900214FF4802079
:10430000FFF7C5F922E0C548844208D101214020C9
:10431000FFF7ACF900214020FFF7A8F916E0C048EC
:10432000844208D101218020FFF7A0F900218020DC
:10433000FFF79CF90AE0BB48844207D101218015B0
:10434000FFF794F90021A015FFF790F910BD0022A6
:104350000288A84B98420ED0AC4B98420BD0B0F1DB
:10436000804F08D0A44B984205D0A44B984202D06D
:10437000A34B984204D14FF68F731A404B881A43CF
:10438000A04B984207D0A04B984204D04FF6FF4371
:104390001A400B891A4302804B68C3620B8803855D
:1043A000944B984202D0994B984201D18B7A038664
:1043B0000123838270474FF0FF314160002101806B
:1043C00001814180817270470185828270470A466F
:1043D000002101884FF68F73194011430180704707
:1043E00041627047C16270470146486A70470146A2
:1043F000088D704721B1028842F00202028004E079
:1044000002884FF6FD731A400280704721B102887E
:1044100042F00402028004E002884FF6FB731A4067
:104420000280704721B1028842F08002028004E0DD
:1044300002884FF67F731A400280704702884FF659
:10444000F7731A40028002880A430280704702888C
:104450004FF6FF431A40028002880A4302807047E9
:1044600021B1028842F00102028004E002884FF686
:10447000FE731A400280704770B5002400220023AA
:10448000058C4FF6FE7635400584028C8388048BBC
:104490004FF68F752C40B51E2C400D882C43751E91
:1044A0002A408D892A434D882A43524DA84202D082
:1044B000564DA84213D14FF6F7752A40CD892A43AD
:1044C0004FF6FB752A408D882A434FF6FF652B4037
:1044D0004FF6FF552B400D8A2B434D8A2B4383808B
:1044E00004838D684563028470BD70B5002400228A
:1044F0000023058C4FF6EF7635400584028C8388C7
:10450000048B48F6FF752C404FF6FF452C400D8874
:104510004FF6FF7606EA05252C434FF6DF752A4055
:104520008D8906EA05152A434D8806EA05152A43B2
:10453000304DA84202D0354DA8421DD14FF67F75AF
:104540002A40CD894FF6FF7606EA05152A434FF635
:10455000BF752A408D8806EA05152A434FF6FF35B8
:104560002B404FF2FF752B400D8A06EA85052B4341
:104570004D8A06EA85052B43838004838D68856315
:10458000028470BD70B5002400220023058C4FF614
:10459000FF6635400584028C8388848B4FF68F75C7
:1045A0002C404FF6FC752C400D882C434FF6FF55E0
:1045B0002A408D894FF6FF7606EA05252A434D8865
:1045C00006EA05252A430B4DA84202D00F4DA8420A
:1045D00038D14FF2FF752A40CD894FF6FF7606EAB3
:1045E00005252A434FF6FF352A408D8806EA052522
:1045F0002A4319E000000140000400400008004088
:10460000000C004000100040001400400004014075
:1046100000400140004401400048014000180040B3
:10462000001C0040002000404EF6FF752B404DF668
:10463000FF752B400D8A06EA05152B434D8A06EAC5
:1046400005152B43838084838D68C563028470BD08
:1046500070B5002200230024058C4EF6FF7635400D
:104660000584038C8488828B48F6FF752A404FF6B8
:10467000FF452A400D884FF6FF7606EA05252A43B6
:104680004DF6FF752B408D8906EA05352B434D8885
:1046900006EA05352B43FE4DA84202D0FD4DA84247
:1046A00008D14BF6FF752C400D8A4FF6FF7606EACF
:1046B00085152C43848082838D680564038470BDD6
:1046C000002101804180818081608181C1810182DE
:1046D0004182704770B50346002000241846183008
:1046E00001258D40ACB21D8CA5431D8409B108295C
:1046F0000AD100EB610005684FF68F763540056002
:104700000568154305600FE00D1FC5F34E052844ED
:10471000056848F6FF763540056005684FF6FF7678
:1047200006EA02263543056070BD41637047816328
:104730007047C1637047016470470A460021018BCE
:104740004FF68F7319401143018370470A460021C9
:10475000018B48F6FF7319404FF6FF7303EA0223FB
:104760001943018370470A460021818B4FF68F73EE
:1047700019401143818370470A460021818B48F616
:10478000FF7319404FF6FF7303EA02231943818335
:1047900070470A460021018B4FF6F7731940114309
:1047A000018370470A460021018B4FF2FF731940C5
:1047B0004FF6FF7303EA02231943018370470A4649
:1047C0000021818B4FF6F7731940114381837047A5
:1047D0000A460021818B4FF2FF7319404FF6FF7399
:1047E00003EA02231943818370470A460021018BA3
:1047F0004FF6FB7319401143018370470A460021AD
:10480000018B4FF6FF3319404FF6FF7303EA022383
:104810001943018370470A460021818B4FF6FB73D1
:1048200019401143818370470A460021818B4FF65E
:10483000FF3319404FF6FF7303EA022319438183C4
:1048400070470A460021018B4FF67F7319401143D0
:10485000018370470A460021018BC1F30E014FF618
:10486000FF7303EA02231943018370470A460021BC
:10487000818B4FF67F7319401143818370470A463D
:104880000021818BC1F30E014FF6FF7303EA02236F
:104890001943818370470A460021018C4FF6FD734E
:1048A00019401143018470470A460021018C4FF6DC
:1048B000F77319401143018470470A460021018CA7
:1048C0004FF6DF7319404FF6FF7303EA02131943E3
:1048D000018470470A460021018C4FF67F7319400E
:1048E0004FF6FF7303EA02131943018470470A4627
:1048F0000021018C4FF6FF5319404FF6FF7303EA76
:1049000002231943018470470A460021018C4FF2AB
:10491000FF7319404FF6FF7303EA02231943018422
:1049200070470A460021018C4DF6FF7319404FF67F
:10493000FF7303EA023319430184704730B5002343
:1049400001248C40A3B2048C9C430484048C02FA9E
:1049500001F5ADB22C43048430BD30B500230424EE
:104960008C40A3B2048C9C430484048C02FA01F5AD
:10497000ADB22C43048430BD828B4FF2FF331A401A
:104980008283828B4FF6FF7303EA01231A438283EB
:104990007047F0B50C461546002100220026078C12
:1049A0004EF6FF7C07EA0C070784818B028C4FF6DA
:1049B000FF7707EA043640F6FF4739404FF6FF77A6
:1049C00007EA052739434FF6FF7707EA03373943EC
:1049D00045F6FF773A4046F480573A438183028494
:1049E000F0BD828B4FF6F3731A408283828B0A43A9
:1049F00082837047F0B50C46154600210022002640
:104A0000078C4FF6FF6C07EA0C070784818B028C3A
:104A10004FF6FF7707EA04264FF60C7739404FF63A
:104A2000FF7707EA03172F4339434FF2FF573A4006
:104A300046F480773A4381830284F0BD028B4FF2C3
:104A4000FF331A400283028B4FF6FF7303EA012300
:104A50001A4302837047F0B50C4615460021002228
:104A60000026078C4FF6EF7C07EA0C070784018BC2
:104A7000028C4FF6FF7707EA041640F6FF473940ED
:104A80004FF6FF7707EA033739434FF6FF7703E026
:104A9000000001400004014007EA052739434FF6B2
:104AA0005F773A4046F010073A4301830284F0BD35
:104AB000028B4FF6F3731A400283028B0A43028380
:104AC0007047F0B50C46154600210022068C4FF6C3
:104AD000FE773E400684018B028C4FF60C76314007
:104AE0007E1C06EA03162E4331434FF6F57632401C
:104AF00044F00106324301830284F0BD70B50546DF
:104B00000C46208850B92389A28861882846FFF77F
:104B1000D8FFE1882846FFF7CBFF25E0208804284E
:104B20000AD12389A28861882846FFF794FFE1888B
:104B30002846FFF783FF17E0208808280AD1238939
:104B4000A28861882846FFF755FFE1882846FFF7CD
:104B500048FF09E02389A28861882846FFF719FFEA
:104B6000E1882846FFF708FF70BD002101804180E1
:104B7000012181800021C180018170472DE9F04130
:104B800005460C4600260127608808B9022600E089
:104B90000026A088012801D1022700E001272088F3
:104BA000A0B92389A28861882846FFF78AFFE18897
:104BB0002846FFF77DFF23893A4631462846FFF70E
:104BC0004AFFE1882846FFF739FF13E02389A288CE
:104BD00061882846FFF73FFFE1882846FFF72EFF50
:104BE00023893A4631462846FFF76BFFE18828467D
:104BF000FFF75EFFBDE8F0810146486B7047014654
:104C0000886B70470146C86B70470146086C704757
:104C10000A884B881A438B881A43CB881A430B891E
:104C20001A434B891A438B891A43A0F844207047D2
:104C30000021018041808180C18001814181818189
:104C4000704731B1B0F8442042F40042A0F844204B
:104C500005E0B0F84420C2F30E02A0F844207047EB
:104C600021B1828842F00402828004E082884FF6FB
:104C7000FB731A408280704721B1828842F00102A2
:104C8000828004E082884FF6FE731A40828070476B
:104C90001AB183890B43838102E083898B4383812B
:104CA00070478182704702460020138A0B400BB187
:104CB000012000E000207047CA430282704730B5EF
:104CC0000246002000230024158A05EA0103958985
:104CD00005EA010413B10CB1012000E0002030BD51
:104CE000CA430282704741EA0203A0F84830704785
:104CF0001AB183890B43838102E083898B438381CB
:104D0000704721B1828842F00802828004E08288E4
:104D10004FF6F7731A408280704701894FF6F87298
:104D20001140018170470A46002101894FF68F73B7
:104D3000194011430181704730B504460D4629469C
:104D40002046FFF7F0FF208940F00700208130BDAA
:104D50002DE9F04104460D4616461F46602D06D14A
:104D60003B46012231462046FFF775FE05E03B46F3
:104D7000012231462046FFF7A4FE29462046FFF7D0
:104D8000D2FF208940F007002081BDE8F08130B5D6
:104D90000C4600210189C9B24FF6FF7505EA0325CB
:104DA000154325432943018130BD2DE9F0410546D6
:104DB0000E4617469846002443463A463146284652
:104DC000FFF7E5FF2C894FF6F870044044F0070424
:104DD0004FF68F70044044F070042C81BDE8F081E0
:104DE000F0B504460D4616461F463B463246294658
:104DF0002046FFF7CCFF208940F480402081F0BDA1
:104E000082884FF68F731A40828082880A4382809C
:104E1000704702894FF6F8731A40028102890A43EB
:104E20000281704702894FF67F731A40028102891E
:104E30000A4302817047F0B50C4615461E46002114
:104E4000002200230189028B038C4FF6F87739404A
:104E500021434FF6FC473A4040F201173A434FF6E0
:104E6000DD773B404FF6FF7707EA06172F433B43BA
:104E7000018102830384F0BD21B1828842F0800267
:104E8000828004E082884FF67F731A4082807047E8
:104E9000A0F8501070470000002041490860091D2B
:104EA0000860091D0860091D08603E483C4914312E
:104EB0000860704700213A498279002A3AD00A46B0
:104EC000126803689A430B461A600A1D1268036849
:104ED0009A430B1D1A60027911440A6803681A4349
:104EE0000A602F4A0832126803689A432C4B083331
:104EF0001A601A1D126803689A43294B0C331A6012
:104F00004279102A0ED11A1F126803681A43244BE3
:104F100008331A601A1D126803681A43204B0C33B9
:104F20001A600DE01E49427911440A6803681A4369
:104F30000A6005E0027911440A6803689A430A602E
:104F400070470021016001710C21417100218171C4
:104F500070471349103109680143114A103211603A
:104F60007047014600200E4A143212680A400AB106
:104F7000012000E0002070470949143108607047A3
:104F800001460020064A143212680A400AB1012084
:104F900000E00020704702491431086070470000AB
:104FA000003C0140FFFF7F00704700000FB4044940
:104FB00010B503AA029800F081F910BC5DF814FB4B
:104FC000A80100200FB41CB5074B06AA7B44694614
:104FD0000090059800F043F90020694600F052F96E
:104FE0001CBC5DF814FB0000B50200002DE9F04187
:104FF0000E460446002020622046E168884730B310
:10500000252805D0D4E901219047206A401CF2E709
:10501000E168204600278847050018D0A5F1410027
:10502000192802D820354FF4006732462946204619
:105030002760FBF703F940B1012804D0F61D26F0E4
:1050400007060836D8E7361DD6E72846DAE7206A8D
:10505000BDE8F08170B50C460546012A05D02878D8
:10506000800600D5EA69002302E0012305E05B1C0D
:10507000934202D2E05C0028F9D1A869E618C01A70
:10508000A861286A184428622846AFF3008004E02B
:10509000D5E9012114F8010B9047B442F8D3284612
:1050A000AFF3008070BD00002DE9F04106460024FA
:1050B00010687529314616A510D0AFF3008000287E
:1050C00002DA404213A507E031688A0701D512A52C
:1050D00002E0490704D511A5012401E0AFF30080E7
:1050E00000210A2206F1240709E0B0FBF2FCB0FB24
:1050F000F2F302FB1C00303078541846491C00289B
:10510000F3D123462A463046BDE8F04100F049B8C5
:10511000000000002D0000002B0000002000000017
:1051200030B505460B462A4613F8014B12F8010B21
:1051300008B1A042F8D01CB1002802D06D1CF1E7E4
:10514000284630BD10B5044610F0030F08BF11F01B
:10515000030F40F015804FF0013E121FC0F20E8089
:1051600051F8043BA3EB0E0C2CEA030C1CEACE1CFA
:1051700008BF40F8043BF0D0A1F1040102F10402A1
:10518000521E08DB11F8013B002B00F8013BF7D160
:10519000114600F0A5F8204610BD704770477047D3
:1051A00070472DE9F0470D4699469246044600F1B6
:1051B00024080168880604D5E06921F01001216007
:1051C00000E00120A84201DD471B00E00027A169A3
:1051D0007A1902EB0900081AA0612078C00602D4EF
:1051E0002046AFF30080002608E0D4E901211AF838
:1051F00006009047206A401C761C20624E45F4DB76
:105200002078C0060AD52046AFF3008006E0D4E936
:10521000012130209047206A401C2062381EA7F1EF
:105220000107F4DC07E0D4E9012118F805009047F4
:10523000206A401C2062281EA5F10105F3DC2046EF
:10524000AFF300802078000602D50220BDE8F08789
:105250000120FBE701694A1C02610878704700B52C
:105260008FB0CDE901310021059105497944CDE99F
:10527000031011466846FFF7B9FE0FB000BD0000ED
:10528000E5FFFFFF0A6802F8010B0A60704710B5DE
:10529000436913B1AFF3008001E0FFF7DBFE0120AB
:1052A00010BD127800F124010A7000224A70012218
:1052B000EDE711684FF0FF32E9E70000074B70B5EA
:1052C0000D467B44FFF7CBFF0446284600F02AF842
:1052D00010B14FF0FF3070BD204670BDB1D9FFFF57
:1052E0004FF000020429C0F0128010F0030C00F00F
:1052F0001F80CCF1040CBCF1020F18BF00F8012B89
:10530000A8BF20F8022BA1EB0C0100F011B85FEA56
:10531000C17C24BF00F8012B00F8012B48BF00F826
:10532000012B7047007B00F0800070474FF00002B7
:1053300000B5134694469646203922BFA0E80C508B
:10534000A0E80C50B1F12001BFF4F7AF090728BF66
:10535000A0E80C5048BF0CC05DF804EB890028BFE2
:1053600040F8042B08BF704748BF20F8022B11F00B
:10537000804F18BF00F8012B7047754600F02CF8DD
:10538000AE4605006946534620F00700854618B032
:1053900020B5FDF727FDBDE820404FF000064FF097
:1053A00000074FF000084FF0000B21F00701AC465A
:1053B000ACE8C009ACE8C009ACE8C009ACE8C00979
:1053C0008D46704710B50446AFF300802046BDE817
:1053D0001040FAF74ABF0000004870473CB0002078
:1053E0004FF04070E1EE100A7047B0009000A0004E
:1053F0007800600120014001F0008002E0012003FC
:10540000580200040003000500044006B004FF0039
:105410002CFF2EDFFF013C321100090204D813E5F6
:1054200014482C0C33783A333BFB3E0043111610E2
:10543000399235DA221A37C3230034C0361A068867
:1054400007C00D870E414C0048005B0042034A81B3
:1054500021992440253826825C00630046000C3CDC
:10546000617062807C05208028306C006D806E0049
:105470007002719473C13D345A5712001711187598
:1054800019011A973236030F37404FCA50A85A23D2
:105490006D006D38FF00E57FF9C04124E01476FF10
:1054A00033A0422043184C0087D5883FD703D9103A
:1054B000D382C808C9807C007D007C037D487D487C
:1054C0007C087D207D107D0E9000910E911A913107
:1054D000915A91699175917E9188918F919691A33E
:1054E00091AF91C491D791E891209200930693E3F4
:1054F0009305930593009304930093009300930006
:105500009300930093009600970897199702970CC1
:105510009724973097289726970297989780970017
:105520009700C3EFA400A800C511C651BF80C710E3
:10553000B666B8A5B764B97CB3AFB497B5FFB0C5CC
:10554000B194B20FC45CC0C8C1968C00863D5000B7
:105550005190522C5300540055885A905B2C5C0596
:10556000D302C3ED7F00DA09E51FE167E000DD7FCC
:105570000500FF002CFF2EDFFF013C321100090265
:1055800004D813E514482C0C33783A333BFB3E0027
:1055900043111610399235DA221A37C3230034C06A
:1055A000361A068807C00D870E414C0048005B0084
:1055B00042034A8121992440253826825C006300F9
:1055C00046220C3C617062807C05208028306C0093
:1055D0006D806E007002719473C13D345A57124051
:1055E0001711184319001A4B320937C04FCA50A877
:1055F0005A236D003D38FF00E57FF9C04124E014D7
:1056000076FF33A0422043184C0087D5883FD7034C
:10561000D910D382C808C9807C007D007C037D48F6
:105620007D487C087D207D107D0E9000910E911AA2
:105630009131915A91699175917E9188918F91964E
:1056400091A391AF91C491D791E8912092009306D4
:1056500093E39305930593009304930093009300C1
:105660009300930093009300960097089719970270
:10567000970C9724973097289726970297989780AA
:1056800097009700C3EDA400A800C511C651BF80C4
:10569000C710B666B8A5B764B97CB3AFB497B5FF09
:1056A000B0C5B194B20FC45CC064C14B8C00863DE0
:1056B000500051C852965300540055005AC85B968A
:1056C0005C00D302C3ED7F00DA09E51FE167E0006B
:1056D000DD7F0500FF01E014E177E51FD703DA1055
:1056E000E000FF00DA09D703DF0233A03C00E167E6
:1056F000FF01E000E100E500D700DA00E000FF0074
:10570000DA10D703DF0033803C40E1770000FF016F
:10571000242025182660FF012434251C2600FF01C3
:10572000243E25382681FF01244825402681FF019B
:105730002458255026920000000000000000002F91
:10574000000000000700070000147F147F140024ED
:105750002A7F2A120062640813230036495522501A
:1057600000000503000000001C224100000041224F
:105770001C000014083E08140008083E0808000039
:1057800000A0600000080808080800006060000031
:10579000002010080402003E5149453E0000427FAF
:1057A0004000004261514946002141454B310018FB
:1057B00014127F10002745454539003C4A494930BD
:1057C0000001710905030036494949360006494977
:1057D000291E000036360000000056360000000882
:1057E000142241000014141414140000412214085F
:1057F00000020151090600324959513E007C121144
:10580000127C007F49494936003E41414122007FD8
:105810004141221C007F49494941007F0909090192
:10582000003E4149497A007F0808087F0000417F17
:105830004100002040413F01007F08142241007FC9
:1058400040404040007F020C027F007F0408107F30
:10585000003E4141413E007F09090906003E415199
:10586000215E007F09192946004649494931000156
:10587000017F0101003F4040403F001F2040201FAA
:10588000003F4038403F006314081463000708706D
:10589000080700615149454300007F414100005520
:1058A0002A552A55000041417F00000402010204EC
:1058B00000404040404000000102040000205454D9
:1058C0005478007F48444438003844444420003829
:1058D0004444487F00385454541800087E0901029B
:1058E0000018A4A4A47C007F080404780000447D70
:1058F0004000004080847D00007F102844000000AC
:10590000417F4000007C04180478007C080404787F
:1059100000384444443800FC24242418001824246B
:1059200018FC007C08040408004854545420000467
:105930003F444020003C4040207C001C2040201C74
:10594000003C4030403C004428102844001CA0A0EB
:10595000A07C004464544C44141414141414000027
:10596000000000000000000000000000FC0000003B
:10597000000002000000000C020C02000000000009
:10598000000090D0BCD0BC9000030003000018249D
:10599000FE448C000302070201001824D8B04C809A
:1059A000000300010201C038E438E00001020201F6
:1059B00002020806000000000000000000000000D5
:1059C00000F80402000000010204000204F80000D4
:1059D0000004020100009060F860900000000100E7
:1059E00000002020FC20200000000100000000003A
:1059F00000000000080600000000202020202000F9
:105A00000000000000000000000000000002000094
:105A100000000080601C0200040300000000F80485
:105A20000404F8000102020201000008FC0000006A
:105A3000000203020000188444241800030202023A
:105A4000020008042424D80001020202010040B030
:105A500088FC80000000000302003C242424C400D1
:105A6000010202020100F824242CC00001020202FB
:105A700001000C04E41C0400000003000000D82412
:105A80002424D80001020202010038444444F800F2
:105A900000030202010000001000000000000200EC
:105AA00000000000200000000000060000000020B0
:105AB0005088040200000000010290909090900035
:105AC00000000000000000020488502000020100D5
:105AD00000001804C4241800000002000000F804AC
